:100000000C94B2000C94C4000C94C4000C94C40072
:100010000C94C4000C94C4000C94C4000C94C40050
:100020000C94C4000C94C4000C94C4000C94C40040
:100030000C94C4000C94C4000C94C4000C94C40030
:100040000C94DE000C94C4000C94C4000C94C40006
:100050000C94C4000C94C4000C94C4000C94C40010
:100060000C94C4000C94C4000C94C4000C94C40000
:100070000C94C4000C94C4000C94C4000C94C400F0
:100080000C94C4000C94C4000C94C400D201D2019E
:10009000E301C401C701CB01CE01E301E301D601B5
:1000A000DA01DE010000000A0B0C00000000000075
:1000B0000104050600000000000000000000000030
:1000C0000000000000000000000000000000000030
:1000D00000000000000000000001020408102040A1
:1000E000800102040810204080081001020408105A
:1000F000204080010201020408102040800480405A
:1001000020100804020101020408102040800505A7
:1001100005050505050502020202020202020707A3
:10012000040404040404040407070303030303038F
:10013000030307010101010101010106060606068C
:1001400006060600003B003800350032002300623E
:1001500000650000003A00370034003100220061E1
:100160000064000011241FBECFEFD0E1DEBFCDBF81
:1001700021E0A0E0B1E001C01D92A930B207E1F793
:100180000E9451020C946A020C94000061E089E123
:100190000C94E40161E089E10E94200268EE73E0C2
:1001A00080E090E00E944E0160E089E10E94200220
:1001B00068EE73E080E090E00C944E011F920F9285
:1001C0000FB60F9211242F933F938F939F93AF936A
:1001D000BF938091010190910201A0910301B09120
:1001E00004013091000123E0230F2D3720F4019604
:1001F000A11DB11D05C026E8230F0296A11DB11D4A
:10020000209300018093010190930201A0930301C8
:10021000B09304018091050190910601A09107011E
:10022000B09108010196A11DB11D80930501909325
:100230000601A0930701B0930801BF91AF919F9170
:100240008F913F912F910F900FBE0F901F90189597
:100250003FB7F8948091050190910601A0910701A4
:10026000B091080122B706B600FE05C02F3F19F075
:100270000196A11DB11D3FBFBA2FA92F982F882726
:10028000820F911DA11DB11DBC01CD0142E0660F81
:10029000771F881F991F4A95D1F708958F929F92D3
:1002A000AF92BF92CF92DF92EF92FF926B017C01EF
:1002B0000E9428014B015C01C114D104E104F10446
:1002C00001F10E9460020E942801DC01CB01881923
:1002D0009909AA09BB09883E9340A105B10560F3BD
:1002E00021E0C21AD108E108F10888EE880E83E007
:1002F000981EA11CB11CC114D104E104F10419F72A
:10030000DBCFFF90EF90DF90CF90BF90AF909F90AA
:100310008F900895789483B7806483BF83B7886093
:1003200083BF83B7846083BF87B7816087BF1EBCEC
:100330008EB582608EBD8EB581608EBD8FB58160B9
:100340008FBD85B5846085BD85B5806485BDEAE8CF
:10035000F0E0808182608083808181608083EBE82F
:10036000F0E0808181608083329A319A309A379AA6
:100370001AB8089590E0FC013197EC30F10518F5BA
:10038000EA5BFF4F0C9461028FB58F7702C08FB587
:100390008F7D8FBD08958FB5877FFBCF85B58F7D0E
:1003A00085BD089583B78F7D83BF089580918B00AD
:1003B0008F7707C080918B008F7D03C080918B0069
:1003C000877F80938B000895CF93DF9390E0FC01AB
:1003D000E752FF4F2491FC01E25FFE4F8491882396
:1003E00061F190E0880F991FFC01ED5AFE4FC59115
:1003F000D491FC01ED5BFE4FA591B491611109C050
:100400009FB7F8948881209582238883EC912E23CE
:100410000BC0623061F49FB7F8943881822F8095C9
:1004200083238883EC912E2B2C939FBF06C08FB71C
:10043000F894E8812E2B28838FBFDF91CF91089508
:100440001F93CF93DF93282F30E0F901EC55FF4F36
:100450008491F901E752FF4FD491F901E25FFE4F19
:10046000C491CC23C9F0162F81110E94BA01EC2F40
:10047000F0E0EE0FFF1FED5BFE4FA591B4918FB73B
:10048000F894111105C09C91ED2FE095E92302C06D
:10049000EC91ED2BEC938FBFDF91CF911F910895DD
:1004A00008950E948A010E9450020E94C600C0E086
:1004B000D0E00E94CA002097E1F30E940000F9CF2B
:1004C0000895EE0FFF1F0024001C0BBE0790F6914D
:0804D000E02D0994F894FFCF20
:00000001FF
